:020000040000FA
:1000000002062B85A73B12073E12070D12071F128F
:1000100007481207521206D112076A1206FA120096
:100020002E12075C120774120763853BA722E5C8EE
:10003000540453C8FB75CFFF75CE3475CBFF75CA1A
:100040003443C80442C822040800000000020C081F
:1000500000002202055DE536242AF8E605362278FE
:1000600027300702782AE475F0011205270204CF31
:100070002000EB7F2ED2008018EF540F2490D43450
:1000800040D4FF30040BEF24BFB41A0050032461A6
:10009000FFE53760021537053AE53A700205393059
:1000A000070D7827E475F001120527EF0205150208
:1000B00007707403D2078003E4C207F5368B278AE2
:1000C000288929E4F537F539F53AE53760077F20C7
:1000D00012009180F57538FFC201C200C202C2034E
:1000E000C205C206C20812005FFF700D3007057F0F
:1000F000001200A2AF3AAE3922B4255FC2D5C204C5
:1001000012005FFF24D0B40A00501A75F00A783745
:1001100030D50508B6FF0106C6A426F620D5047022
:1001200002D20380D924CFB41A00EF5004C2E5D222
:10013000040202A2D20180C6D20080C0D20280BCDA
:10014000D2D580BAD20580B47F2012009120020758
:100150007401B5370040F1120056FF120091020001
:10016000CAD208D2068095120056FB120056FA1227
:100170000056F94A4B700679737A037BFF20022EF2
:10018000E537602A7E008E827583001204E86006DF
:100190000EEE653870F0C2D5EBC0E0EAC0E0E9C011
:1001A000E0EE1202E9D0E0F9D0E0FAD0E0FB120470
:1001B000CFFF60AAEBC0E0EAC0E0E9C0E012009126
:1001C000D0E02401F9D0E03400FAD0E0FBE53804B7
:1001D00060DCD538D980877BFF7A0279E5D202804E
:1001E0009C791080027908C206C2088008D2D579AD
:1001F0000A8004790AC2D5E538047002F538E4FAB9
:10020000FDFEFF120056FC7B08200113120056FD74
:100210007B1030000A120056FE120056FF7B20ECC5
:100220003382D592D55013C3E43000069FFFE49E7D
:10023000FEE42001039DFDE49CFCE4CBF8C201EC4C
:10024000700CCFCECDCCE824F8F870F38017C3EF54
:1002500033FFEE33FEED33FDEC33FCEB33FB994023
:1002600002FB0FD8E9EB300105F8D0E0C448B20139
:10027000C0E00AEC4D4E4F78207B0070C2EAB538E2
:100280000040BCC0E01202EBD0F0D0E0200104C47A
:10029000C0E0C4B201C0F012007AD0F0D5F0EB0299
:1002A00000CA12053701675301E15801384C013487
:1002B0004201E54F01ED4401ED49014D4301F35584
:1002C00001D74601D74501D747039350013C2D0183
:1002D000402E01632B014423016120037C2A00FC92
:1002E000480000015B3F3F3F00790AA2D52003147C
:1002F000300509B910020404B9080104A2D520068A
:10030000025001042002689202B537005034C0E068
:100310007F203003197F30A20272067205500F123F
:100320000342C202C206C205C2087F30800F3005F8
:1003300003E9C0E0120091300503D0E0F9D0E0B548
:1003400037CC3005177F30B9100C1200917F583030
:1003500004077F788003B908031200913002057FFB
:100360002D0200917F202008F87F2B2006F3229297
:100370000280CF286E756C6C2900D20112005630B5
:1003800001F8C201783730D50108F60200FC2D5083
:100390004349581200562403B405004001E4900379
:1003A0008E93120082743A120082D20375370402CF
:1003B00001E1E88FF0A4CC8BF0A42CFCE98EF0A432
:1003C0002CFC8AF0EDA42CFCEA8EF0A4CDA8F08BD6
:1003D000F0A42DCC3825F0FDE98FF0A42CCD35F01C
:1003E000FCEB8EF0A4FEA9F0EB8FF0A4CFC5F02EAD
:1003F000CD39FEE43CFCEAA42DCE35F0FDE43CFC16
:100400002275F008758200EF2FFFEE33FECD33CD5D
:10041000CC33CCC58233C5829BED9AEC99E58298AA
:10042000400CF582EE9BFEED9AFDEC99FC0FD5F0A9
:10043000D6E4CEFBE4CDFAE4CCF9A88222B800C120
:10044000B90059BA002DEC8BF084CFCECDFCE5F08D
:10045000CBF97818EF2FFFEE33FEED33FDEC33FCD4
:10046000EB33FB10D703994004EB99FB0FD8E5E47D
:10047000F9FA227818EF2FFFEE33FEED33FDEC335F
:10048000FCC933C910D7059BE99A4007EC9BFCE9EE
:100490009AF90FD8E0E4C9FAE4CCFB2275F010EF2A
:1004A0002FFFEE33FEED33FDCC33CCC833C810D76D
:1004B000079BEC9AE899400AED9BFDEC9AFCE899C1
:1004C000F80FD5F0DAE4CDFBE4CCFAE4C8F922BBAE
:1004D000010689828A83E0225002E722BBFE02E302
:1004E0002289828A83E49322BB010CE58229F5826A
:1004F000E5833AF583E0225006E92582F8E622BB3F
:10050000FE06E92582F8E222E58229F582E5833AB2
:10051000F583E49322BB010689828A83F02250028C
:10052000F722BBFE01F322FAE6FB0808E6F925F004
:10053000F618E6CA3AF622D083D082F8E493701215
:10054000740193700DA3A393F8740193F5828883CB
:10055000E4737402936860EFA3A3A380DFC0E0C0DC
:10056000F0C083C082C0D075D000C000C001C002FE
:10057000C003C004C005C006C0077525007524006F
:10058000752300752200C2EDAFBDAEBEE4FCFDE5F3
:100590000B2FF50BE50A3EF50AED3509F509EC35AB
:1005A00008F508E50D150D7002150CE50D450C70EC
:1005B0005F750C08F50DFB7A08F9F8AF0BAE0AADC4
:1005C00009AC0812043D8F258E248D238C22750BD7
:1005D00000750A00750900750800E47FE47E0CFDD3
:1005E000FCAB25AA24A923A8221203B2E47BFF7A3C
:1005F0000FF9F812043D85A72675A7007BFF7A0640
:1006000079BA8F2D8E2C8D2B8C2A1200B88526A7B7
:10061000D007D006D005D004D003D002D001D0003E
:10062000D0D0D082D083D0F0D0E032120052787F88
:10063000E4F6D8FD75813B020675020731E493A309
:10064000F8E493A34003F68001F208DFF48029E484
:1006500093A3F85407240CC8C333C4540F4420C8D0
:10066000834004F456800146F6DFE4800B01020467
:100670000810204080900047E47E019360BCA3FFF7
:10068000543F30E509541FFEE493A360010ECF549C
:10069000C025E060A840B8E493A3FAE493A3F8E48B
:1006A00093A3C8C582C8CAC583CAF0A3C8C582C8F7
:1006B000CAC583CADFE9DEE780BE0A50312E372083
:1006C000766F6C746167653A20256C64206D560AFC
:1006D0000075B30275B24075BB0D75DF2375BC089C
:1006E00075B90343E8C022BF0A083099FDC2997565
:1006F000990D3099FDC2998F9922AF885388AF75B3
:100700008DF7EF5440FEEF54104E4288227580FF63
:1007100075A41075F1FFE4F5D4F5FE75FDFF2275A3
:1007200090FFE4F5A575F27F75D580F5EE75EDFFC8
:1007300022120003C2B4D2A2D299D2AF80FEE4F555
:10074000A77597DE7597AD2275A60975A72075CC9C
:100750000922E4F5A775E34075E10122758920437C
:1007600088402275E60875A88022E4F5A9F5A9223B
:050770001206E7222241
:00000001FF
