:020000040000FA
:1000000002002E85A70A120019120145120174126E
:100010000158120178850AA722E4F5A77597DE75C5
:0900200097AD2202080000002245
:10002B000200BD120028787FE4F6D8FD75810A0224
:10003B00007802016BE493A3F8E493A34003F680EA
:10004B0001F208DFF48029E493A3F85407240CC8C9
:10005B00C333C4540F4420C8834004F45680014674
:10006B00F6DFE4800B01020408102040809000238F
:10007B00E47E019360BCA3FF543F30E509541FFE9F
:10008B00E493A360010ECF54C025E060A840B8E410
:10009B0093A3FAE493A3F8E493A3C8C582C8CAC593
:1000AB0083CAF0A3C8C582C8CAC583CADFE9DEE725
:1000BB0080BEC0E0C083C082C0D075D000C000C27B
:1000CB00CFE508704DE509B4070050469000DEF807
:1000DB002828730200F30200FB0200FF0201030257
:1000EB00010B02010F020117D294C295C296802216
:1000FB00C2948006C294800ED294D295C29680127E
:10010B00C294800AD294C295D2968006D294D2958C
:10011B00D296D3E5099406E50864809480500A05CD
:10012B0009E509700A05088006750800750900D0F5
:10013B0000D0D0D082D083D0E0327590FF75A570FF
:10014B0075F2FF75D570E4F5EE75EDFF22E5C85439
:10015B000453C8FB75CB3875CA9E43C80442C822EA
:10016B00120003C2B4D2AF80FE75E3402275A8A083
:01017B002261
:00000001FF
